:100000000C9462000C948A000C948A000C948A0070
:100010000C948A000C948A000C948A000C948A0038
:100020000C948A000C948A000C948A000C948A0028
:100030000C948A000C948A000C948A000C948A0018
:100040000C946E040C948A000C94DE040C94B80496
:100050000C948A000C948A000C948A000C948A00F8
:100060000C948A000C948A000000000023002600F3
:10007000290000000000240027002A0000000000E2
:10008000250028002B0004040404040404040202D4
:100090000202020203030303030301020408102007
:1000A0004080010204081020010204081020000012
:1000B0000008000201000003040700000000000027
:1000C0000000100511241FBECFEFD8E0DEBFCDBF6A
:1000D00011E0A0E0B1E0ECE4FEE002C005900D927A
:1000E000A03AB107D9F722E0A0EAB1E001C01D9221
:1000F000A636B207E1F710E0C2E6D0E004C02197CF
:10010000FE010E941E07C136D107C9F70E945A0599
:100110000C9424070C940000833081F028F4813083
:1001200099F08230A9F008958730A9F08830C9F09D
:100130008430B1F4809180008F7D03C08091800075
:100140008F7780938000089584B58F7784BD08955C
:1001500084B58F7DFBCF8091B0008F778093B00006
:1001600008958091B0008F7DF9CF1F93CF93DF93D7
:10017000282F30E0F901E255FF4F8491F901E6564E
:10018000FF4FD491F901EA57FF4FC491CC23A9F056
:10019000162F81110E948C00EC2FF0E0EE0FFF1F54
:1001A000E458FF4FA591B4918FB7F894EC911111D9
:1001B00008C0D095DE23DC938FBFDF91CF911F91D4
:1001C0000895DE2BF8CFCF93DF9390E0FC01E65645
:1001D000FF4F24918A579F4FFC0184918823D1F0CF
:1001E00090E0880F991FFC01EE58FF4FA591B49144
:1001F000FC01E458FF4FC591D491623071F49FB770
:10020000F8943C91822F809583238C93E8812E2B48
:1002100028839FBFDF91CF9108958FB7F894EC9119
:100220002E2B2C938FBFF6CF3FB7F8948091AD0162
:100230009091AE01A091AF01B091B00126B5A89BFD
:1002400005C02F3F19F00196A11DB11D3FBFBA2F68
:10025000A92F982F8827BC01CD01620F711D811D28
:10026000911D42E0660F771F881F991F4A95D1F7AD
:1002700008958F929F92AF92BF92CF92DF92EF92AA
:10028000FF924B015C010E9414016B017C010E94F2
:1002900014016C197D098E099F09683E7340810520
:1002A0009105A8F321E0821A9108A108B10888EE0F
:1002B000C80E83E0D81EE11CF11C81149104A10436
:1002C000B10429F7FF90EF90DF90CF90BF90AF90EF
:1002D0009F908F900895AF92BF92CF92DF92EF924E
:1002E000FF920F931F93CF93DF936C017B018B01E0
:1002F000040F151FEB015E01AE18BF08C017D10730
:1003000059F06991D601ED91FC910190F081E02DB9
:10031000C6010995892B79F7C501DF91CF911F910E
:100320000F91FF90EF90DF90CF90BF90AF90089526
:10033000FC01538D448D252F30E0842F90E0821BEB
:10034000930B541710F0CF96089501970895FC0170
:10035000918D828D981761F0A28DAE0FBF2FB11DC8
:100360005D968C91928D9F5F9F73928F90E0089520
:100370008FEF9FEF0895FC01918D828D981731F0DA
:10038000828DE80FF11D858D90E008958FEF9FEF2E
:100390000895FC01918D228D892F90E0805C9F4F04
:1003A000821B91098F739927089581EB91E00E9438
:1003B000C90121E0892B09F420E0822F089580E013
:1003C00090E0892B29F00E94D50181110C94000046
:1003D0000895FC01A48DA80FB92FB11DA35ABF4FDA
:1003E0002C91848D90E001968F739927848FA68934
:1003F000B7892C93A089B1898C91837080648C9388
:10040000938D848D981306C00288F389E02D808136
:100410008F7D80830895EF92FF920F931F93CF9368
:10042000DF93EC0181E0888F9B8D8C8D98131AC02F
:10043000E889F989808185FF15C09FB7F894EE8916
:10044000FF896083E889F989808183708064808373
:100450009FBF81E090E0DF91CF911F910F91FF90BE
:10046000EF900895F62E0B8D10E00F5F1F4F0F7366
:100470001127E02E8C8D8E110CC00FB607FCFACF21
:10048000E889F989808185FFF5CFCE010E94E901D5
:10049000F1CFEB8DEC0FFD2FF11DE35AFF4FF082F2
:1004A0009FB7F8940B8FEA89FB8980818062CFCF58
:1004B000CF93DF93EC01888D8823B9F0AA89BB899B
:1004C000E889F9898C9185FD03C0808186FD0DC086
:1004D0000FB607FCF7CF8C9185FFF2CF808185FFA7
:1004E000EDCFCE010E94E901E9CFDF91CF910895D0
:1004F000089590E080E008958F929F92AF92BF920E
:100500000F931F93CF93DF93CDB7DEB7A1970FB6AD
:10051000F894DEBF0FBECDBF19A2423008F44AE006
:100520008E010F5D1F4F842E912CB12CA12CA501A3
:1005300094010E94FC06E62FB901CA01EA3044F595
:10054000E05DD801EE938D01232B242B252B79F729
:1005500090E080E0109769F0FD0101900020E9F73C
:100560003197AF014A1B5B0BBD018EE492E00E9404
:100570006B01A1960FB6F894DEBF0FBECDBFDF9121
:10058000CF911F910F91BF90AF909F908F90089542
:10059000E95CD7CFFC0101900020E9F73197AF016A
:1005A000481B590BBC018EE492E00C946B01CF9375
:1005B000DF93EC0160E08E810E94B50061E08E81E6
:1005C0000E94B50060E08E810E94B5008BE891E04A
:1005D0000197F1F7DF91CF910895CF92DF92EF92DB
:1005E000FF920F931F93CF93DF936C017C0187E001
:1005F000E80EF11CD0E0C0E0062F10E0B8010C2E90
:1006000002C0759567950A94E2F76170F7018191D0
:100610007F010E94B5002196C430D10579F7C6014B
:10062000DF91CF911F910F91FF90EF90DF90CF90CE
:100630000C94D702CF92DF92EF92FF920F931F9309
:10064000CF93DF93EC01F62E642F8C810E94B500CE
:100650008D818F3F19F060E00E94B5000F2D10E0F2
:100660008F8584FF25C06E0187E0C80ED11CF12C58
:10067000E12CB8010E2C02C0759567950A94E2F73B
:100680006170F60181916F010E94B500FFEFEF1AD2
:10069000FF0A88E0E816F10461F7CE01DF91CF91FF
:1006A0001F910F91FF90EF90DF90CF900C94D702A5
:1006B000B80184E0759567958A95E1F7CE010E94AF
:1006C000ED026F2DCE01DF91CF911F910F91FF9021
:1006D000EF90DF90CF900C94ED0240E0682F8EE415
:1006E00092E00C941A0381E00E946D038BE39FE17A
:1006F0000197F1F70895CF93DF93823029F4909119
:100700005D02986090935D02809361021092620294
:1007100080E48093630280E18093640280E58093AB
:10072000650261E0809152020E94E30080915302D1
:100730008F3F19F061E00E94E30061E08091540274
:100740000E94E300CEE4D2E09E012E54324080911C
:100750005D0284FD0BC084E090E0219628173907E4
:1007600044F461E08E810E94E300EECF88E090E0E7
:10077000F4CF8BE39DE00197F1F760E080915202A6
:100780000E94B50060E0809154020E94B500809103
:1007900053028F3F19F060E00E94B50080915D0226
:1007A00084FD34C063E08EE492E00E94ED02CBE46D
:1007B000D6E4CE010197F1F763E08EE492E00E9467
:1007C000ED022197F1F763E08EE492E00E94ED02E2
:1007D00083E592E00197F1F762E08EE492E00E94F7
:1007E000ED0280915D0280620E946D0384E080933F
:1007F0005E028CE00E946D030E94730382E080938E
:100800005F0286E0DF91CF910C946D0380620E94BD
:100810006D038BE496E40197F1F780915D028062AD
:100820000E946D0383E592E00197F1F780915D02EC
:1008300080620E946D03D5CF843008F083E09091F0
:100840006102891710F08FEF890FE82FF0E0E25B6B
:10085000FD4F848980680C946D0341E00E941A0367
:1008600081E090E00895CF93DF93EC010E941C0497
:1008700086E391E00E94CA02BE016F5F7F4F072EA0
:10088000000C880B990B4AE00E947C028EE391E0F9
:100890000E94CA02C056DE4F8881811106C082E3E1
:1008A00091E0DF91CF910C94CA028EE291E0F9CFF2
:1008B000CF93DF93EC01FC01E056FE4F608381E0B3
:1008C0006827FE01EE0FFF1FE050FF4F80810E945E
:1008D000B500CE01DF91CF910C9433041F920F929B
:1008E0000FB60F9211242F933F938F939F93AF9343
:1008F000BF938091A9019091AA01A091AB01B09101
:10090000AC013091A80123E0230F2D3758F5019653
:10091000A11DB11D2093A8018093A9019093AA0164
:10092000A093AB01B093AC018091AD019091AE0169
:10093000A091AF01B091B0010196A11DB11D8093AE
:10094000AD019093AE01A093AF01B093B001BF9100
:10095000AF919F918F913F912F910F900FBE0F906C
:100960001F90189526E8230F0296A11DB11DD2CF26
:100970001F920F920FB60F9211242F933F934F9314
:100980005F936F937F938F939F93AF93BF93EF93F7
:10099000FF9381EB91E00E94E901FF91EF91BF91FC
:1009A000AF919F918F917F916F915F914F913F9107
:1009B0002F910F900FBE0F901F9018951F920F92BE
:1009C0000FB60F9211242F938F939F93EF93FF9362
:1009D000E091C101F091C2018081E091C701F091E5
:1009E000C80182FD1BC090818091CA018F5F8F7307
:1009F0002091CB01821741F0E091CA01F0E0EF5461
:100A0000FE4F958F8093CA01FF91EF919F918F9137
:100A10002F910F900FBE0F901F9018958081F4CFEB
:100A2000E1EBF1E01382128288EE93E0A0E0B0E007
:100A300084839583A683B78384E191E09183808347
:100A400085EC90E09587848784EC90E09787868793
:100A500080EC90E0918B808B81EC90E0938B828B8B
:100A600082EC90E0958B848B86EC90E0978B868B64
:100A7000118E128E138E148EEEE4F2E01382128227
:100A800086E291E09183808388E084838FEF858381
:100A900089E086838AE087838BE080878CE081878A
:100AA0008DE082871386148615861686178681E068
:100AB0000C947B03789484B5826084BD84B5816096
:100AC00084BD85B5826085BD85B5816085BD809119
:100AD0006E00816080936E00109281008091810091
:100AE0008260809381008091810081608093810089
:100AF000809180008160809380008091B10084604B
:100B00008093B1008091B00081608093B0008091AB
:100B10007A00846080937A0080917A00826080936A
:100B20007A0080917A00816080937A0080917A00C7
:100B3000806880937A001092C10048E0E42E41E082
:100B4000F42EC0E0D1E01881229661E0812F0E944E
:100B5000E30061E0812F0E94B500EC16FD0699F7D5
:100B600062E08EE00E94E30062E08FE00E94E3001A
:100B700062E080E10E94E30062E081E10E94E30024
:100B8000E091C101F091C20182E08083E091BD015A
:100B9000F091BE011082E091BF01F091C0018FEC95
:100BA00080831092C901E091C501F091C60186E0F1
:100BB0008083E091C301F091C401808180618083D2
:100BC000E091C301F091C401808188608083E0914D
:100BD000C301F091C401808180688083E091C301EA
:100BE000F091C40180818F7D808382E00E947B032D
:100BF00081E491E00E94CA0281E00E941C0480E529
:100C000091E00E94CA0260ED77E080E090E00E94EF
:100C100039010E9473038BE591E00E94CA02882487
:100C2000839430E0A32E30E0B32E81EB91E00E945C
:100C3000C901181619060CF047C081EB91E00E941B
:100C4000A7019FEB980F943048F0883449F00E9438
:100C5000730385E791E00E94CA0236C0883441F4EC
:100C600080E00E941C0486E691E00E94CA0219C03E
:100C7000823491F044F461E0813479F00E9473038E
:100C800085E791E0F2CF833409F4A5C060E08434B5
:100C9000A9F781E090E003C060E090E080E00E946E
:100CA00058042FB7F8948091A9019091AA01A091BE
:100CB000AB01B091AC012FBF8093A4019093A5012B
:100CC000A093A601B093A7012FB7F8948091A90132
:100CD0009091AA01A091AB01B091AC012FBF4091BE
:100CE000A4015091A5016091A6017091A701841BF8
:100CF000950BA60BB70B81319742A105B10528F1E1
:100D00000E94730385E891E00E94CA0281E00E947C
:100D10001C0483E991E00E94CA021092A00161E0E4
:100D200084E00E94B5001092A10161E085E00E947C
:100D3000B5001092A20161E086E00E94B500109219
:100D4000A30161E087E00E94B50098E0C92E91E020
:100D5000D92E00EA11E020E0E22E21E0F22ED0E0D0
:100D6000C0E0F601219131916F013327F901E2557D
:100D7000FF4F8491F901E656FF4F9490F901EA572D
:100D8000FF4F7490711029C068EC70E080E090E033
:100D90000E943901F8016081862F88258083F70140
:100DA00080810E94B500CE010E94330421960F5F1E
:100DB0001F4FF2E0EF0EF11CC430D10591F6A114E3
:100DC000B10409F432CF0E94D501882309F42DCF54
:100DD0000E9400002ACF61E05CCF81110E948C004C
:100DE000E72DF0E0EE0FFF1FE859FF4FA591B491FA
:100DF000EC919E2249F2DACFA1E21A2EAA1BBB1B6C
:100E0000FD010DC0AA1FBB1FEE1FFF1FA217B307D6
:100E1000E407F50720F0A21BB30BE40BF50B661FEC
:100E2000771F881F991F1A9469F7609570958095B0
:100E300090959B01AC01BD01CF010895EE0FFF1FFE
:0C0E40000590F491E02D0994F894FFCF88
:100E4C0004000500060007000E000F001000110042
:100E5C00000000000B026B0198015802C901A701A8
:100E6C00BB01000000002D046B01790278024F4E8B
:100E7C0020004F46460044657669636520003A20A1
:100E8C0000426C7565746F6F746820486F6D6500F7
:100E9C004175746F6D6174696F6E00576169746927
:100EAC006E672E2E2E00426C7565746F6F74682001
:100EBC004F4B202000496E76616C696420436F6D46
:100ECC006D616E64004E6F20426C7565746F6F744B
:100EDC006821004D616E75616C204D6F646500007A
:00000001FF
